{
  "abi": [
    {
      "inputs": [
        {
          "internalType": "address",
          "name": "moduleFactory",
          "type": "address"
        }
      ],
      "stateMutability": "nonpayable",
      "type": "constructor"
    },
    {
      "inputs": [],
      "name": "InvalidRevenueSplit",
      "type": "error"
    },
    {
      "inputs": [
        {
          "internalType": "address",
          "name": "line",
          "type": "address"
        },
        {
          "internalType": "address",
          "name": "spigot",
          "type": "address"
        },
        {
          "internalType": "address",
          "name": "escrow",
          "type": "address"
        }
      ],
      "name": "ModuleTransferFailed",
      "type": "error"
    },
    {
      "anonymous": false,
      "inputs": [
        {
          "indexed": true,
          "internalType": "address",
          "name": "deployedAt",
          "type": "address"
        },
        {
          "indexed": true,
          "internalType": "uint32",
          "name": "minCRatio",
          "type": "uint32"
        },
        {
          "indexed": true,
          "internalType": "address",
          "name": "oracle",
          "type": "address"
        },
        {
          "indexed": false,
          "internalType": "address",
          "name": "owner",
          "type": "address"
        }
      ],
      "name": "DeployedEscrow",
      "type": "event"
    },
    {
      "anonymous": false,
      "inputs": [
        {
          "indexed": true,
          "internalType": "address",
          "name": "deployedAt",
          "type": "address"
        },
        {
          "indexed": true,
          "internalType": "address",
          "name": "escrow",
          "type": "address"
        },
        {
          "indexed": true,
          "internalType": "address",
          "name": "spigot",
          "type": "address"
        },
        {
          "indexed": false,
          "internalType": "address",
          "name": "swapTarget",
          "type": "address"
        },
        {
          "indexed": false,
          "internalType": "uint8",
          "name": "revenueSplit",
          "type": "uint8"
        }
      ],
      "name": "DeployedSecuredLine",
      "type": "event"
    },
    {
      "anonymous": false,
      "inputs": [
        {
          "indexed": true,
          "internalType": "address",
          "name": "deployedAt",
          "type": "address"
        },
        {
          "indexed": true,
          "internalType": "address",
          "name": "owner",
          "type": "address"
        },
        {
          "indexed": true,
          "internalType": "address",
          "name": "treasury",
          "type": "address"
        },
        {
          "indexed": false,
          "internalType": "address",
          "name": "operator",
          "type": "address"
        }
      ],
      "name": "DeployedSpigot",
      "type": "event"
    },
    {
      "inputs": [
        {
          "internalType": "uint32",
          "name": "minCRatio",
          "type": "uint32"
        },
        {
          "internalType": "address",
          "name": "oracle_",
          "type": "address"
        },
        {
          "internalType": "address",
          "name": "owner",
          "type": "address"
        },
        {
          "internalType": "address",
          "name": "borrower",
          "type": "address"
        }
      ],
      "name": "deployEscrow",
      "outputs": [
        {
          "internalType": "address",
          "name": "",
          "type": "address"
        }
      ],
      "stateMutability": "nonpayable",
      "type": "function"
    },
    {
      "inputs": [
        {
          "internalType": "address",
          "name": "oracle",
          "type": "address"
        },
        {
          "internalType": "address",
          "name": "arbiter",
          "type": "address"
        },
        {
          "internalType": "address",
          "name": "borrower",
          "type": "address"
        },
        {
          "internalType": "uint256",
          "name": "ttl",
          "type": "uint256"
        },
        {
          "internalType": "address payable",
          "name": "swapTarget",
          "type": "address"
        }
      ],
      "name": "deploySecuredLine",
      "outputs": [
        {
          "internalType": "address",
          "name": "line",
          "type": "address"
        }
      ],
      "stateMutability": "nonpayable",
      "type": "function"
    },
    {
      "inputs": [
        {
          "internalType": "address",
          "name": "oracle",
          "type": "address"
        },
        {
          "internalType": "address",
          "name": "arbiter",
          "type": "address"
        },
        {
          "internalType": "address",
          "name": "borrower",
          "type": "address"
        },
        {
          "internalType": "uint256",
          "name": "ttl",
          "type": "uint256"
        },
        {
          "internalType": "uint8",
          "name": "revenueSplit",
          "type": "uint8"
        },
        {
          "internalType": "uint32",
          "name": "cratio",
          "type": "uint32"
        },
        {
          "internalType": "address payable",
          "name": "swapTarget",
          "type": "address"
        }
      ],
      "name": "deploySecuredLineWithConfig",
      "outputs": [
        {
          "internalType": "address",
          "name": "line",
          "type": "address"
        }
      ],
      "stateMutability": "nonpayable",
      "type": "function"
    },
    {
      "inputs": [
        {
          "internalType": "address",
          "name": "owner",
          "type": "address"
        },
        {
          "internalType": "address",
          "name": "borrower",
          "type": "address"
        },
        {
          "internalType": "address",
          "name": "operator",
          "type": "address"
        }
      ],
      "name": "deploySpigot",
      "outputs": [
        {
          "internalType": "address",
          "name": "",
          "type": "address"
        }
      ],
      "stateMutability": "nonpayable",
      "type": "function"
    },
    {
      "inputs": [
        {
          "internalType": "address payable",
          "name": "oldLine",
          "type": "address"
        },
        {
          "internalType": "address",
          "name": "borrower",
          "type": "address"
        },
        {
          "internalType": "address",
          "name": "oracle",
          "type": "address"
        },
        {
          "internalType": "address",
          "name": "arbiter",
          "type": "address"
        },
        {
          "internalType": "uint256",
          "name": "ttl",
          "type": "uint256"
        }
      ],
      "name": "rolloverSecuredLine",
      "outputs": [
        {
          "internalType": "address",
          "name": "",
          "type": "address"
        }
      ],
      "stateMutability": "nonpayable",
      "type": "function"
    }
  ],
  "bytecode": {
    "object": "0x60a060405234801561001057600080fd5b50604051610c4f380380610c4f83398101604081905261002f91610040565b6001600160a01b0316608052610070565b60006020828403121561005257600080fd5b81516001600160a01b038116811461006957600080fd5b9392505050565b608051610ba26100ad6000396000818160f1015281816101c5015281816102560152818161045f0152818161050501526107df0152610ba26000f3fe608060405234801561001057600080fd5b50600436106100575760003560e01c806343adf0fd1461005c578063522465301461008b5780635cfb3dbd1461009e578063e0f97689146100b1578063fc049db8146100c4575b600080fd5b61006f61006a36600461088d565b6100d7565b6040516001600160a01b03909116815260200160405180910390f35b61006f6100993660046108f1565b610184565b61006f6100ac366004610982565b61045a565b61006f6100bf3660046109ea565b61070e565b61006f6100d2366004610a4e565b6107c5565b6040516343adf0fd60e01b81526000906001600160a01b037f000000000000000000000000000000000000000000000000000000000000000016906343adf0fd9061012a90879087908790600401610aa8565b602060405180830381600087803b15801561014457600080fd5b505af1158015610158573d6000803e3d6000fd5b505050506040513d601f19601f8201168201806040525081019061017c9190610acb565b949350505050565b6000606460ff851611156101ab57604051630346e1b360e41b815260040160405180910390fd5b6040516343adf0fd60e01b81526000906001600160a01b037f000000000000000000000000000000000000000000000000000000000000000016906343adf0fd906101fe9030908b908190600401610aa8565b602060405180830381600087803b15801561021857600080fd5b505af115801561022c573d6000803e3d6000fd5b505050506040513d601f19601f820116820180604052508101906102509190610acb565b905060007f00000000000000000000000000000000000000000000000000000000000000006001600160a01b031663fc049db8868c308c6040518563ffffffff1660e01b81526004016102a69493929190610aef565b602060405180830381600087803b1580156102c057600080fd5b505af11580156102d4573d6000803e3d6000fd5b505050506040513d601f19601f820116820180604052508101906102f89190610acb565b905073f3562a8970e5a4de823d32ac11b761ddb9a167a363ad31a1f38b8b8b8887878e8e6040518963ffffffff1660e01b815260040161033f989796959493929190610b1e565b60206040518083038186803b15801561035757600080fd5b505af415801561036b573d6000803e3d6000fd5b505050506040513d601f19601f8201168201806040525081019061038f9190610acb565b604051636bef62a760e11b815290935073f3562a8970e5a4de823d32ac11b761ddb9a167a39063d7dec54e906103cd90869086908690600401610aa8565b60006040518083038186803b1580156103e557600080fd5b505af41580156103f9573d6000803e3d6000fd5b5050604080516001600160a01b03888116825260ff8b166020830152808616945086811693508716917fc043ebb31424e42a4ec1454f0de8a7ab9ba0443b8b556c538484c873ae8e64b5910160405180910390a45050979650505050505050565b6000807f00000000000000000000000000000000000000000000000000000000000000006001600160a01b03166343adf0fd3087886040518463ffffffff1660e01b81526004016104ad93929190610aa8565b602060405180830381600087803b1580156104c757600080fd5b505af11580156104db573d6000803e3d6000fd5b505050506040513d601f19601f820116820180604052508101906104ff9190610acb565b905060007f00000000000000000000000000000000000000000000000000000000000000006001600160a01b031663fc049db8610bb88a308a6040518563ffffffff1660e01b81526004016105579493929190610aef565b602060405180830381600087803b15801561057157600080fd5b505af1158015610585573d6000803e3d6000fd5b505050506040513d601f19601f820116820180604052508101906105a99190610acb565b60405163ad31a1f360e01b8152909150605a9073f3562a8970e5a4de823d32ac11b761ddb9a167a39063ad31a1f3906105f4908c908c908c908b908a908a908f908b90600401610b1e565b60206040518083038186803b15801561060c57600080fd5b505af4158015610620573d6000803e3d6000fd5b505050506040513d601f19601f820116820180604052508101906106449190610acb565b604051636bef62a760e11b815290945073f3562a8970e5a4de823d32ac11b761ddb9a167a39063d7dec54e9061068290879087908790600401610aa8565b60006040518083038186803b15801561069a57600080fd5b505af41580156106ae573d6000803e3d6000fd5b5050604080516001600160a01b03898116825260ff86166020830152808716945087811693508816917fc043ebb31424e42a4ec1454f0de8a7ab9ba0443b8b556c538484c873ae8e64b5910160405180910390a450505095945050505050565b60405163e0f9768960e01b81526001600160a01b03808716600483015280861660248301528085166044830152831660648201526084810182905260009073f3562a8970e5a4de823d32ac11b761ddb9a167a39063e0f976899060a40160206040518083038186803b15801561078357600080fd5b505af4158015610797573d6000803e3d6000fd5b505050506040513d601f19601f820116820180604052508101906107bb9190610acb565b5095945050505050565b604051631f8093b760e31b81526000906001600160a01b037f0000000000000000000000000000000000000000000000000000000000000000169063fc049db89061081a908890889088908890600401610aef565b602060405180830381600087803b15801561083457600080fd5b505af1158015610848573d6000803e3d6000fd5b505050506040513d601f19601f8201168201806040525081019061086c9190610acb565b95945050505050565b6001600160a01b038116811461088a57600080fd5b50565b6000806000606084860312156108a257600080fd5b83356108ad81610875565b925060208401356108bd81610875565b915060408401356108cd81610875565b809150509250925092565b803563ffffffff811681146108ec57600080fd5b919050565b600080600080600080600060e0888a03121561090c57600080fd5b873561091781610875565b9650602088013561092781610875565b9550604088013561093781610875565b945060608801359350608088013560ff8116811461095457600080fd5b925061096260a089016108d8565b915060c088013561097281610875565b8091505092959891949750929550565b600080600080600060a0868803121561099a57600080fd5b85356109a581610875565b945060208601356109b581610875565b935060408601356109c581610875565b92506060860135915060808601356109dc81610875565b809150509295509295909350565b600080600080600060a08688031215610a0257600080fd5b8535610a0d81610875565b94506020860135610a1d81610875565b93506040860135610a2d81610875565b92506060860135610a3d81610875565b949793965091946080013592915050565b60008060008060808587031215610a6457600080fd5b610a6d856108d8565b93506020850135610a7d81610875565b92506040850135610a8d81610875565b91506060850135610a9d81610875565b939692955090935050565b6001600160a01b0393841681529183166020830152909116604082015260600190565b600060208284031215610add57600080fd5b8151610ae881610875565b9392505050565b63ffffffff9490941684526001600160a01b039283166020850152908216604084015216606082015260800190565b6001600160a01b039889168152968816602088015294871660408701529286166060860152908516608085015290931660a083015260c082019290925260ff90911660e0820152610100019056fea264697066735822122066d52f8d2bda4fdb8a9df0dbc66f207d6fd79ef3ecf9135ad3a34c46852b717864736f6c63430008090033",
    "linkReferences": {}
  },
  "methodIdentifiers": {
    "deployEscrow(uint32,address,address,address)": "fc049db8",
    "deploySecuredLine(address,address,address,uint256,address)": "5cfb3dbd",
    "deploySecuredLineWithConfig(address,address,address,uint256,uint8,uint32,address)": "52246530",
    "deploySpigot(address,address,address)": "43adf0fd",
    "rolloverSecuredLine(address,address,address,address,uint256)": "e0f97689"
  },
  "id": 24
}